:100000000C942A000C9447000C9447000C94470071
:100010000C9447000C9447000C9447000C94470044
:100020000C9447000C9447000C9447000C94C303B5
:100030000C9447000C9447000C9447000C94470024
:100040000C9447000C9447000C9447000C94470014
:100050000C94470011241FBECFE5D8E0DEBFCDBF12
:1000600011E0A0E6B0E0E2EDFDE002C005900D92E7
:10007000A232B107D9F721E0A2E2B1E001C01D929E
:10008000AC34B207E1F70E94A1030C94E7060C948C
:100090000000DC0116961C92169715961C921E9273
:1000A000149713961C921E92129711961C921E92F0
:1000B00017968CE0E0E6F0E001900D928A95E1F76A
:1000C0000895EF92FF921F93CF93DF936894EE24ED
:1000D000E1F8F12CC0E0D0E024C00E944302182FC8
:1000E00080ED810F8A30A0F4812F0E941B03CE0186
:1000F000880F991FCC0FDD1FCC0FDD1FCC0FDD1F2C
:10010000C80FD91FC10FD11DE09721E0E21AF108F5
:100110008FEF96E721E0815090402040E1F700C04A
:100120000000E114F104C9F6CE01DF91CF911F91D7
:10013000FF90EF900895CF93DF93EC0160E081E0B2
:100140000E9482038CE690E00E94620360E081E0FE
:100150000E9482030E9461009983888321E00C97AA
:100160000CF420E02E8365E081E00E9482030E946F
:1001700061009B838A836AE081E00E9482030E947F
:1001800061009D838C830E947803888199814897C0
:1001900070F48A819B81992364F0CC9764F48C81FC
:1001A0009D81992354F0CC9754F080E009C080E001
:1001B00007C080E005C080E003C080E001C081E0AE
:1001C000DF91CF9108950F931F93CF93DF93EC01AD
:1001D0008C01095F1F4F8D818F938C818F938B8151
:1001E0008F938A818F9389818F9388818F9389E7F9
:1001F00090E09F938F931F930F930E94FD038E8136
:100200002DB73EB7265F3F4F0FB6F8943EBF0FBEE7
:100210002DBF882311F080E5888BC8010E946203FE
:10022000DF91CF911F910F91089586E291E00E9496
:100230004900089589E391E00E94490008950E94D1
:1002400078038BE890E00E94620386E291E00E94CE
:100250009B00882371F08BE990E00E9462032FEFEE
:1002600085EA9EE0215080409040E1F700C0000008
:1002700008958BEA90E00E9462032FEF85EA9EE0EA
:10028000215080409040E1F700C00000D8CF0E948C
:1002900078038FEB90E00E94620389E391E00E9473
:1002A0009B00882371F08FEC90E00E9462032FEF97
:1002B00085EA9EE0215080409040E1F700C00000B8
:1002C00008958FED90E00E9462032FEF85EA9EE093
:1002D000215080409040E1F700C00000D8CF60E09E
:1002E00082E00E94820383EF90E00E94620386E234
:1002F00091E00E94E30008950E9478038BEF90E064
:100300000E94620389E391E00E94E3000895E9E31B
:10031000F1E084819581019695838483CC970CF1DB
:100320001582148282819381019693838283CC9774
:10033000C4F013821282808191810196918380831F
:10034000489724F010923A01109239012091390116
:1003500030913A0181E02C3031050CF480E080933B
:100360003F0108950E941F0160E082E00E94820325
:1003700083E091E00E9462030E9443028A3251F0BE
:100380002FEF86E791E0215080409040E1F700C0D8
:100390000000F2CF08950E9443028D3299F08F320F
:1003A00019F08A32A9F407C00E94F0030E944701A5
:1003B0000E94EC030DC00E94F0030E94B2010E9453
:1003C000EC0306C00E94F0030E949D030E94EC0310
:1003D0002FEF86E791E0215080409040E1F700C088
:1003E000000008958091220190912301019690933D
:1003F000230180932201CF97B1F40E9487010E94CC
:100400007C010E946F0160E471E08DE291E00E9446
:10041000F403892B21F40E9499030E941402109284
:10042000230110922201089585B3806485BB08954D
:1004300081B38F7781BB81B38F7B81BB81B38F7D8C
:1004400081BB81B3877F81BB84B3806284BB84B36B
:10045000806184BB84B3886084BB84B3846084BBC4
:1004600082B3806882BB82B3806482BB82B38062C5
:1004700082BB82B3886082BB8FE19EE40197F1F773
:1004800000C0000008958FEFE5E062C095B39C6363
:1004900095BB95B36E2F70E021E030E00E2E02C0C8
:1004A000220F331F0A94E2F72095292325BB97E0FA
:1004B0004BC0943009F4915020B3492F50E030E004
:1004C000092E02C0359527950A94E2F720FD3BC01E
:1004D0002FEF3BEDF5E021503040F040E1F700C058
:1004E000000020B330E0092E02C0359527950A940C
:1004F000E2F720FD28C0933099F485E090E0861B58
:10050000970B26E030E0241B350B880F991F880FCE
:10051000991F8F5E9E4FDC01A20FB31F8C9117C0F5
:1005200085E090E0861B970B27E030E0241B350B1D
:10053000880F991F880F991F8F5E9E4FDC01A20FB5
:10054000B31F8C9104C09150933008F0B2CFE150AA
:10055000E23008F09BCF08959BB3977F9BBB98B385
:10056000987E98BB282F22952F70922F9870492F34
:1005700050E0440F551F2770422B98B3492B48BBBE
:100580009BB39B7F9BBB9BB394609BBBEFE9FFE05E
:100590003197F1F700C000009BB39B7F9BBB98B3E2
:1005A000987E98BB982F9870292F30E0220F331F28
:1005B0008770282B88B3282B28BB8BB38B7F8BBBF2
:1005C0008BB384608BBB8FE99FE00197F1F700C08C
:1005D00000008BB38B7F8BBBEFE1FEE43197F1F72B
:1005E00000C0000008958AB384608ABB8AB3886023
:1005F0008ABB87B3816087BB87B3826087BB87B3C1
:10060000846087BB87B3806187BB8FE59AEE0197D3
:10061000F1F700C0000082E00E94AC0288E20E9474
:10062000AC028CE00E94AC0281E00E94AC0280E847
:100630000E94AC0208959BB398609BBB98B3987ED0
:1006400098BB282F22952F70922F9870492F50E039
:10065000440F551F2770422B98B3492B48BB9BB3BF
:100660009B7F9BBB9BB394609BBBEFE9FFE0319703
:10067000F1F700C000009BB39B7F9BBB98B3987EB3
:1006800098BB982F9870292F30E0220F331F877066
:10069000282B88B3282B28BB8BB38B7F8BBB8BB3CA
:1006A00084608BBB8FE99FE00197F1F700C00000E9
:1006B0008BB38B7F8BBBEFE1FEE43197F1F700C08A
:1006C000000008950F931F93CF93DF938C01C0E038
:1006D000D0E003C00E941B032196F801EC0FFD1F20
:1006E00080818111F7CFDF91CF911F910F910895F4
:1006F00081E00E94AC028FE39CE90197F1F700C012
:1007000000000895813039F058F0823031F08330A4
:1007100031F060E005C0605C03C06C5E01C06C5AE3
:10072000862F80680E94AC02089587B3806887BBDB
:10073000089588B3806888BB089588B38F7788BB95
:1007400008950E9418020E94F3020E9415010E945F
:100750001A010E94B6030E9495030E94470182EF8E
:1007600091E00E94BE030E94CB01FDCF12BE89B76B
:10077000816089BF85E883BF7894089590932501AF
:100780008093240108951F920F920FB60F921124A7
:100790002F933F934F935F936F937F938F939F9389
:1007A000AF93BF93EF93FF93E0912401F091250164
:1007B000309709F00995FF91EF91BF91AF919F910B
:1007C0008F917F916F915F914F913F912F910F90FA
:1007D0000FBE0F901F90189583B7856083BF089553
:1007E00083B7887F83BF0895FB01DC018D91019061
:1007F00080190110D9F3990B0895AEE0B0E0E3E061
:10080000F4E00C94BE060D891E8986E08C831A8361
:1008100009838FEF9FE79E838D83AE01475E5F4F15
:100820006F89788DCE0101960E941F04EF81F885B3
:10083000E00FF11F10822E96E4E00C94DA06ABE094
:10084000B0E0E5E2F4E00C94B0066C017B018A01B3
:10085000FC0117821682838181FFCCC1CE010196F3
:100860003C01F6019381F70193FD859193FF8191FE
:100870007F01882309F4BAC1853239F493FD85914B
:1008800093FF81917F01853229F4B60190E00E94A7
:100890001606E7CF912C212C312CFFE1F315D8F06F
:1008A0008B3279F038F4803279F08332A1F4232D41
:1008B00020611DC08D3261F0803369F4232D2160E9
:1008C00016C0832D8260382EE32DE4603E2E2AC0B0
:1008D000F32DF8601DC037FC2DC020ED280F2A3005
:1008E00040F08E32B9F436FC81C1232D2064322EC3
:1008F00019C036FE06C08AE0989E200D1124922E63
:1009000011C0EAE02E9E200D1124222EF32DF0625C
:100910003F2E08C08C3621F4832D8068382E02C00B
:10092000883641F4F70193FD859193FF81917F0112
:100930008111B3CF982F9F7D9554933028F40C5F8D
:100940001F4F9FE399830DC0833631F0833771F0D9
:10095000833509F059C021C0F801808189830E5F79
:100960001F4F88248394912C530113C02801F2E077
:100970004F0E511CF801A080B18036FE03C0692DD6
:1009800070E002C06FEF7FEFC5010E940B064C01C3
:100990008201F32DFF773F2E16C0280122E0420E80
:1009A000511CF801A080B18036FE03C0692D70E0B3
:1009B00002C06FEF7FEFC5010E9400064C01F32DCE
:1009C000F0683F2E820133FC1BC0822D90E0881618
:1009D0009906B0F4B60180E290E00E9416062A94CF
:1009E000F4CFF50137FC859137FE81915F01B601A7
:1009F00090E00E94160621102A9421E0821A9108A4
:100A00008114910471F7E8C0843611F0893641F5FC
:100A1000F80137FE07C060817181828193810C5F8C
:100A20001F4F08C060817181072E000C880B990B45
:100A30000E5F1F4FF32DFF763F2E97FF09C0909555
:100A40008095709561957F4F8F4F9F4FF0683F2E37
:100A50002AE030E0A3010E945206882E861845C085
:100A6000853731F4232D2F7EB22E2AE030E025C0C9
:100A7000932D997FB92E8F36C1F018F4883579F00F
:100A8000B5C0803719F0883721F0B0C0E92FE06198
:100A9000BE2EB4FE0DC0FB2DF460BF2E09C034FE87
:100AA0000AC0292F2660B22E06C028E030E005C01B
:100AB00020E130E002C020E132E0F801B7FE07C0DB
:100AC00060817181828193810C5F1F4F06C06081BC
:100AD000718180E090E00E5F1F4FA3010E945206DB
:100AE000882E8618FB2DFF773F2E36FE0DC0232D56
:100AF0002E7FA22E891458F434FE0BC032FC09C09C
:100B0000832D8E7EA82E05C0B82CA32C03C0B82C34
:100B100001C0B92CA4FE0FC0FE01E80DF11D8081BB
:100B2000803321F49A2D997EA92E09C0A2FE06C019
:100B3000B394B39404C08A2D867809F0B394A3FCCF
:100B400011C0A0FE06C0B21488F4280C922C9B1889
:100B50000EC0B21460F4B60180E290E00E94160666
:100B6000B394F7CFB21418F42B1802C0982C212C90
:100B7000A4FE10C0B60180E390E00E941606A2FE1B
:100B800017C0A1FC03C088E790E002C088E590E0B0
:100B9000B6010CC08A2D867859F0A1FE02C08BE206
:100BA00001C080E2A7FC8DE2B60190E00E9416062B
:100BB000891438F4B60180E390E00E9416069A94F6
:100BC000F7CF8A94F301E80DF11D8081B60190E022
:100BD0000E9416068110F5CF222009F442CEB601FC
:100BE00080E290E00E9416062A94F6CFF6018681F4
:100BF000978102C08FEF9FEF2B96E2E10C94CC0619
:100C0000FC010590615070400110D8F780959095D7
:100C10008E0F9F1F0895FC016150704001900110DC
:100C2000D8F7809590958E0F9F1F08950F931F936F
:100C3000CF93DF93FB01238121FD03C08FEF9FEF53
:100C40002CC022FF16C0468157812481358142176E
:100C5000530744F4A081B1819D012F5F3F4F318341
:100C600020838C93268137812F5F3F4F37832683E4
:100C700014C08B01EC01FB010084F185E02D099586
:100C8000892BE1F6D80116968D919C9117970196C4
:100C900017969C938E931697CE01DF91CF911F915B
:100CA0000F910895FA01AA27283051F1203181F1DE
:100CB000E8946F936E7F6E5F7F4F8F4F9F4FAF4F64
:100CC000B1E03ED0B4E03CD0670F781F891F9A1F77
:100CD000A11D680F791F8A1F911DA11D6A0F711D2B
:100CE000811D911DA11D20D009F468943F912AE037
:100CF000269F11243019305D3193DEF6CF0108951F
:100D0000462F4770405D4193B3E00FD0C9F7F6CF4F
:100D1000462F4F70405D4A3318F0495D31FD405217
:100D2000419302D0A9F7EACFB4E0A69597958795AD
:100D300077956795BA95C9F700976105710508958C
:100D40009B01AC010A2E0694579547953795279538
:100D5000BA95C9F7620F731F841F951FA01D0895D0
:100D60002F923F924F925F926F927F928F929F92BB
:100D7000AF92BF92CF92DF92EF92FF920F931F93A9
:100D8000CF93DF93CDB7DEB7CA1BDB0B0FB6F8945A
:100D9000DEBF0FBECDBF09942A88398848885F849A
:100DA0006E847D848C849B84AA84B984C884DF800B
:100DB000EE80FD800C811B81AA81B981CE0FD11DEF
:100DC0000FB6F894DEBF0FBECDBFED010895F894C5
:020DD000FFCF53
:100DD20030303A30303A303020414D004848203AE5
:100DE200204D4D203A20535300253032643A2530AD
:100DF20032643A2530326420414D005365742041FB
:100E02006C61726D2054696D653A00416C61726D5E
:100E12002054696D65205365742100496E76616CBA
:100E2200696420416C61726D2054696D65210053C3
:100E3200657420436C6F636B2054696D653A00439F
:100E42006C6F636B2054696D652053657421004992
:100E52006E76616C696420436C6F636B2054696DBC
:100E6200652100416C61726D3A2000436C6F636BC7
:100E72003A2000416C61726D206D6F64652E2E2EDA
:100E8200003738392F3435362A3132332D43303D4D
:020E92002B0033
:00000001FF
