:100000000C942A000C9447000C9447000C94470071
:100010000C9447000C9447000C9447000C94470044
:100020000C9447000C9447000C9447000C94470034
:100030000C9447000C9447000C9447000C94470024
:100040000C9447000C9447000C9447000C94470014
:100050000C94470011241FBECFE5D8E0DEBFCDBF12
:1000600010E0A0E6B0E0E2E5F6E002C005900D92F7
:10007000A039B107D9F720E0A0E9B0E001C01D9296
:10008000A83DB207E1F70E9490010C9427030C945D
:10009000000084B38C6384BB82B3886E82BB0895F6
:1000A00085B38B7F85BB839B32C0859B32C0869B8B
:1000B00032C0879B32C085B3846085BB85B3877FA0
:1000C00085BB839B2CC0859B2CC0869B2CC0879BAB
:1000D0002CC085B3886085BB85B38F7E85BB839B31
:1000E00026C0859B26C0869B26C0879B26C085B3DD
:1000F000806185BB85B38F7D85BB839B20C0859B3D
:1001000020C0869B20C0879920C087E308958BE29A
:1001100008958DE3089580E3089586E208958DE2C1
:10012000089583E3089582E3089581E308958AE2C0
:10013000089586E3089585E3089584E308958FE2A2
:10014000089589E3089588E3089580E008959BB3B6
:10015000977F9BBB98B3987E98BB282F22952F70D2
:10016000922F9870492F50E0440F551F2770422B53
:1001700098B3492B48BB9BB39B7F9BBB9BB39460BD
:100180009BBBEFE9FFE03197F1F700C000009BB3A4
:100190009B7F9BBB98B3987E98BB982F9870292F14
:1001A00030E0220F331F8770282B88B3282B28BB01
:1001B0008BB38B7F8BBB8BB384608BBB8FE99FE052
:1001C0000197F1F700C000008BB38B7F8BBBEFE191
:1001D000FEE43197F1F700C0000008958AB384600F
:1001E0008ABB8AB388608ABB87B3816087BB87B3C9
:1001F000826087BB87B3846087BB87B3806187BB1E
:100200008FE59AEE0197F1F700C0000082E00E94AE
:10021000A70088E20E94A7008CE00E94A70081E06E
:100220000E94A70080E80E94A70008959BB39860F1
:100230009BBB98B3987E98BB282F22952F70922F46
:100240009870492F50E0440F551F2770422B98B3E8
:10025000492B48BB9BB39B7F9BBB9BB394609BBBD1
:10026000EFE9FFE03197F1F700C000009BB39B7FFF
:100270009BBB98B3987E98BB982F9870292F30E03D
:10028000220F331F8770282B88B3282B28BB8BB3F2
:100290008B7F8BBB8BB384608BBB8FE99FE0019717
:1002A000F1F700C000008BB38B7F8BBBEFE1FEE466
:1002B0003197F1F700C0000008950F931F93CF937B
:1002C000DF938C01C0E0D0E003C00E9416012196AC
:1002D000F801EC0FFD1F80818111F7CFDF91CF91E5
:1002E0001F910F91089581E00E94A7008FE39CE980
:1002F0000197F1F700C000000895813039F058F0FF
:10030000823031F0833031F060E005C0605C03C0C2
:100310006C5E01C06C5A862F80680E94A700089509
:100320000E9449000E946A020E94EE000E949F0102
:100330000E9410020E9445020E949A02FFCF0F9372
:100340001F93CF9380E690E00E945D0160E081E022
:100350000E947D0100E010E00E945000C82F80ED57
:100360008C0F8A3018F58C2F0E941601E0919000B6
:10037000F0919100EE0FFF1FEC54FF4F208131816F
:10038000C901880F991F220F331F220F331F220F1D
:10039000331F820F931F2C2F30E020533109820F1F
:1003A000931F918380830F5F1F4F2CC0CB3271F45A
:1003B000809190009091910001969093910080938C
:1003C000900080E790E00E945D011CC0C63219F0E9
:1003D00000311105B9F4E0919000F091910031964F
:1003E000EE0FFF1FEC54FF4F8FEF9FEF9183808341
:1003F0002FEF83EC99E0215080409040E1F700C05E
:1004000000000AC02FEF83EC99E02150804090401B
:10041000E1F700C00000A0CFCF911F910F91089588
:10042000CF930E94730183E790E00E945D010E94D8
:100430005000C82F80ED8C0F8A30C8F48C2F0E949A
:1004400016018091D6009091D7009C01220F331F96
:10045000880F991F880F991F880F991F820F931F6C
:100460008C0F911DC0979093D7008093D600C63211
:1004700051F02FEF83EC99E0215080409040E1F75C
:1004800000C00000D4CFCF91089580E090E060E0FC
:1004900070E01CC0FC01EE0FFF1FEC54FF4F2081E9
:1004A00031812F3F4FEF3407A1F04091D60050919A
:1004B000D7002417350749F4FB01EE0FFF1FEE5656
:1004C000FF4F918380836F5F7F4F0196813191054C
:1004D0000CF3089580E78ABB87B3806887BB0895D3
:1004E0008130910571F01CF4892B39F00895823028
:1004F000910559F0039769F008958BB380618BBB28
:1005000008958BB380628BBB08958BB380648BBBE3
:10051000089588B3806888BB08958BB38F7E8BBBAA
:100520008BB38F7D8BBB8BB38F7B8BBB88B38F776C
:1005300088BB0895EF92FF920F931F93CF93DF93A1
:100540000E94E6020E94730182E890E00E945D0131
:10055000E12CF12C30C0F701EE0FFF1FEE56FF4FDC
:10056000C081D181CF3F2FEFD20749F1CE010E9448
:10057000ED0200E010E00EC0C0FF03C0C8010E9401
:100580007002CE01DD230CF40196EC01D595C795E0
:100590000F5F1F4F043011057CF39FEF23ED80E3C5
:1005A000915020408040E1F700C000000E948D0281
:1005B0009FEFE91AF90A21E1E216F10464F2DF91F2
:1005C000CF911F910F91FF90EF9008958AB38860AB
:1005D0008ABB87B3876187BB08956AE070E00E9499
:1005E000FF0228B3287E28BB48B39C01287033271C
:1005F000220F331F8770282B242B28BB089597FBCD
:10060000072E16F4009407D077FD09D00E9413033B
:1006100007FC05D03EF4909581959F4F0895709505
:1006200061957F4F0895AA1BBB1B51E107C0AA1F0C
:10063000BB1FA617B70710F0A61BB70B881F991F83
:100640005A95A9F780959095BC01CD010895F8942D
:02065000FFCFDA
:10065200456E746572206E756D626572733A200024
:100662002C2000456E746572207461726765743A5D
:100672002000506F736974696F6E732E2E2E000006
:00000001FF
