S01A0000536F7274696E67416C676F726974686D2E312E737265631E
S11300000C942A000C9447000C9447000C9447006D
S11300100C9447000C9447000C9447000C94470040
S11300200C9447000C9447000C9447000C94470030
S11300300C9447000C9447000C9447000C94470020
S11300400C9447000C9447000C9447000C94470010
S11300500C94470011241FBECFE5D8E0DEBFCDBF0E
S113006010E0A0E6B0E0EAE4FDE002C005900D92E5
S1130070A638B107D9F721E0A6E8B0E001C01D9287
S1130080A035B207E1F70E94E0010C94A3060C949A
S1130090000081B38F7781BB81B38F7B81BB81B338
S11300A08F7D81BB81B3877F81BB84B3806284BB36
S11300B084B3806184BB84B3886084BB84B384606C
S11300C084BB82B3806882BB82B3806482BB82B308
S11300D0806282BB82B3886082BB0895CF93DF9332
S11300E0CDB7DEB760970FB6F894DEBF0FBECDBFB5
S11300F080E1E0E6F0E0DE01119601900D928A9530
S1130100E1F78FEFE5E067C095B39C6395BB95B3CA
S11301106E2F70E021E030E00E2E02C0220F331F5C
S11301200A94E2F72095292325BB97E050C0943028
S113013009F4915020B3492F50E030E0092E02C059
S1130140359527950A94E2F720FD40C0AFE2B5E764
S11301501197F1F700C0000020B330E0092E02C06F
S1130160359527950A94E2F720FD30C09330B9F411
S113017085E090E0861B970B26E030E0241B350BCE
S1130180880F991F880F991F41E050E04C0F5D1FA5
S1130190840F951FDC01A20FB31F8C911BC085E057
S11301A090E0861B970B27E030E0241B350B880F6B
S11301B0991F880F991FA1E0B0E0AC0FBD1F8A0FF3
S11301C09B1FDC01A20FB31F8C9104C0915093308C
S11301D008F0ADCFE150E23008F096CF60960FB64C
S11301E0F894DEBF0FBECDBFDF91CF9108959BB3CE
S11301F0977F9BBB98B3987E98BB282F22952F702E
S1130200922F9870492F50E0440F551F2770422BAE
S113021098B3492B48BB9BB39B7F9BBB9BB3946018
S11302209BBBEFE9FFE03197F1F700C000009BB3FF
S11302309B7F9BBB98B3987E98BB982F9870292F6F
S113024030E0220F331F8770282B88B3282B28BB5C
S11302508BB38B7F8BBB8BB384608BBB8FE99FE0AD
S11302600197F1F700C000008BB38B7F8BBBEFE1EC
S1130270FEE43197F1F700C0000008958AB384606A
S11302808ABB8AB388608ABB87B3816087BB87B324
S1130290826087BB87B3846087BB87B3806187BB79
S11302A08FE59AEE0197F1F700C0000082E00E940A
S11302B0F70088E20E94F7008CE00E94F70081E0DA
S11302C00E94F70080E80E94F70008959BB39860AD
S11302D09BBB98B3987E98BB282F22952F70922FA2
S11302E09870492F50E0440F551F2770422B98B344
S11302F0492B48BB9BB39B7F9BBB9BB394609BBB2D
S1130300EFE9FFE03197F1F700C000009BB39B7F5A
S11303109BBB98B3987E98BB982F9870292F30E098
S1130320220F331F8770282B88B3282B28BB8BB34D
S11303308B7F8BBB8BB384608BBB8FE99FE0019772
S1130340F1F700C000008BB38B7F8BBBEFE1FEE4C1
S11303503197F1F700C0000008950F931F93CF93D6
S1130360DF938C01C0E0D0E003C00E9466012196B7
S1130370F801EC0FFD1F80818111F7CFDF91CF9140
S11303801F910F91089581E00E94F7008FE39CE98B
S11303900197F1F700C000000895813039F058F05A
S11303A0823031F0833031F060E005C0605C03C01E
S11303B06C5E01C06C5A862F80680E94F700089515
S11303C00E9449000E943E010E948F020E94EF0198
S11303D00E94A2020E94F8020E942F03FFCF87B35B
S11303E0816087BB87B3826087BB87B3846087BB28
S11303F087B3806187BB88B3887E88BB87B38064FA
S113040087BB87B3806287BB8AB384608ABB8AB3A5
S113041088608ABB089528B3287E28BB48B39C0112
S113042028703327220F331F8770282B242B28BBD7
S11304300895AF92BF92CF92DF92EF92FF920F9303
S11304401F93CF93DF93FC0168EE73E00E94910346
S1130450CB012AE030E0B9010E9491037C01CF0175
S113046064E670E00E949103CB01B9010E949103FC
S11304708C01CF01B9010E949103A82EB92ECB01A2
S1130480B9010E949103EC01C12CD12C38C0C701E1
S11304900E940B0283EF91E00197F1F700C0000086
S11304A088B320E4282728BBC8010E940B0283EFED
S11304B091E00197F1F700C0000088B320E22827FB
S11304C028BBCE010E940B0283EF91E00197F1F764
S11304D000C000008BB324E028272BBB8A2D9B2D62
S11304E00E940B0283EF91E00197F1F700C0000036
S11304F08BB328E028272BBB95E0C90ED11C88EECE
S1130500C81683E0D80618F2DF91CF911F910F919E
S1130510FF90EF90DF90CF90BF90AF90089580E070
S113052090E008C0FC01EE0FFF1FE857FF4F118257
S11305301082019684369105ACF3109287001092D4
S113054086000895CF9380E790E00E94AD0160E0BB
S113055081E00E94CD010E946E00C82F80ED8C0FB7
S11305608A30F0F48C2F0E946601E0918600F091AD
S11305708700EE0FFF1FE857FF4F808191819C0198
S1130580220F331F880F991F880F991F880F991FF7
S1130590820F931F8C0F911DC097918380831CC081
S11305A0CD3371F480E890E00E94AD018091860023
S11305B090918700019690938700809386000CC0E9
S11305C0C33451F4809186009091870001969093F2
S11305D08700809386000AC02FEF83EC99E02150B6
S11305E080409040E1F700C00000B5CFCF9108955E
S11305F0CF93DF9360E070E028C0EB012196CE0139
S113060020C0FB01EE0FFF1FE857FF4F208131810F
S1130610FC01EE0FFF1FE857FF4F40815181421745
S1130620530774F4FB01EE0FFF1FE857FF4F51838C
S11306304083FC01EE0FFF1FE857FF4F31832083F7
S113064001968A179B07ECF2BE01A0918600B09137
S113065087006A177B078CF2DF91CF910895EF92A0
S1130660FF920F931F93CF93DF9300D000D0CDB7A9
S1130670DEB70E94C30100E010E023C0F801EE0FD2
S1130680FF1FE857FF4F81818F9380818F9383E809
S113069090E09F938F93CE0101967C019F938F935B
S11306A00E94B903C7010E94AD0180E890E00E9456
S11306B0AD010F5F1F4F0F900F900F900F900F9091
S11306C00F90809186009091870008171907B4F263
S11306D000E010E014C0F801EE0FFF1FE857FF4FD1
S11306E0808191810E9419029FEF25EA8EE091504A
S11306F020408040E1F700C000000F5F1F4F809151
S1130700860090918700081719072CF30F900F901B
S11307100F900F90DF91CF911F910F91FF90EF9069
S1130720089597FB072E16F4009407D077FD09D09F
S11307300E94A50307FC05D03EF4909581959F4F38
S11307400895709561957F4F0895AA1BBB1B51E1D5
S113075007C0AA1FBB1FA617B70710F0A61BB70B2D
S1130760881F991F5A95A9F780959095BC01CD01D2
S11307700895AEE0B0E0EFEBF3E00C947A060D8957
S11307801E8986E08C831A8309838FEF9FE79E83FB
S11307908D83AE01475E5F4F6F89788DCE010196E0
S11307A00E94DB03EF81F885E00FF11F10822E9683
S11307B0E4E00C949606ABE0B0E0E1EEF3E00C94D8
S11307C06C066C017B018A01FC011782168283810D
S11307D081FFCCC1CE0101963C01F6019381F70162
S11307E093FD859193FF81917F01882309F4BAC118
S11307F0853239F493FD859193FF81917F01853290
S113080029F4B60190E00E94D205E7CF912C212C67
S1130810312CFFE1F315D8F08B3279F038F48032C3
S113082079F08332A1F4232D20611DC08D3261F053
S1130830803369F4232D216016C0832D8260382E05
S1130840E32DE4603E2E2AC0F32DF8601DC037FC72
S11308502DC020ED280F2A3040F08E32B9F436FC3A
S113086081C1232D2064322E19C036FE06C08AE0D1
S1130870989E200D1124922E11C0EAE02E9E200D88
S11308801124222EF32DF0623F2E08C08C3621F461
S1130890832D8068382E02C0883641F4F70193FD19
S11308A0859193FF81917F018111B3CF982F9F7D13
S11308B09554933028F40C5F1F4F9FE399830DC028
S11308C0833631F0833771F0833509F059C021C084
S11308D0F801808189830E5F1F4F88248394912CB3
S11308E0530113C02801F2E04F0E511CF801A080FF
S11308F0B18036FE03C0692D70E002C06FEF7FEF58
S1130900C5010E94C7054C018201F32DFF773F2EDC
S113091016C0280122E0420E511CF801A080B180CB
S113092036FE03C0692D70E002C06FEF7FEFC50192
S11309300E94BC054C01F32DF0683F2E820133FC6C
S11309401BC0822D90E088169906B0F4B60180E2AF
S113095090E00E94D2052A94F4CFF50137FC8591EA
S113096037FE81915F01B60190E00E94D20521100B
S11309702A9421E0821A91088114910471F7E8C045
S1130980843611F0893641F5F80137FE07C06081DD
S11309907181828193810C5F1F4F08C060817181D6
S11309A0072E000C880B990B0E5F1F4FF32DFF765B
S11309B03F2E97FF09C090958095709561957F4F64
S11309C08F4F9F4FF0683F2E2AE030E0A3010E9432
S11309D00E06882E861845C0853731F4232D2F7EC8
S11309E0B22E2AE030E025C0932D997FB92E8F36A0
S11309F0C1F018F4883579F0B5C0803719F088371C
S1130A0021F0B0C0E92FE061BE2EB4FE0DC0FB2D75
S1130A10F460BF2E09C034FE0AC0292F2660B22E0E
S1130A2006C028E030E005C020E130E002C020E14B
S1130A3032E0F801B7FE07C0608171818281938141
S1130A400C5F1F4F06C06081718180E090E00E5FF3
S1130A501F4FA3010E940E06882E8618FB2DFF77D8
S1130A603F2E36FE0DC0232D2E7FA22E891458F45E
S1130A7034FE0BC032FC09C0832D8E7EA82E05C027
S1130A80B82CA32C03C0B82C01C0B92CA4FE0FC0F1
S1130A90FE01E80DF11D8081803321F49A2D997EA9
S1130AA0A92E09C0A2FE06C0B394B39404C08A2D33
S1130AB0867809F0B394A3FC11C0A0FE06C0B2145A
S1130AC088F4280C922C9B180EC0B21460F4B60162
S1130AD080E290E00E94D205B394F7CFB21418F4E8
S1130AE02B1802C0982C212CA4FE10C0B60180E360
S1130AF090E00E94D205A2FE17C0A1FC03C088E7C3
S1130B0090E002C088E590E0B6010CC08A2D86789A
S1130B1059F0A1FE02C08BE201C080E2A7FC8DE285
S1130B20B60190E00E94D205891438F4B60180E33E
S1130B3090E00E94D2059A94F7CF8A94F301E80DCD
S1130B40F11D8081B60190E00E94D2058110F5CF9D
S1130B50222009F442CEB60180E290E00E94D20540
S1130B602A94F6CFF6018681978102C08FEF9FEF1A
S1130B702B96E2E10C948806FC01059061507040CC
S1130B800110D8F7809590958E0F9F1F0895FC0152
S1130B906150704001900110D8F7809590958E0FA8
S1130BA09F1F08950F931F93CF93DF93FB0123811E
S1130BB021FD03C08FEF9FEF2CC022FF16C046819A
S1130BC05781248135814217530744F4A081B181B0
S1130BD09D012F5F3F4F318320838C932681378182
S1130BE02F5F3F4F3783268314C08B01EC01FB0139
S1130BF00084F185E02D0995892BE1F6D80116963C
S1130C008D919C911797019617969C938E931697A6
S1130C10CE01DF91CF911F910F910895FA01AA2778
S1130C20283051F1203181F1E8946F936E7F6E5F2B
S1130C307F4F8F4F9F4FAF4FB1E03ED0B4E03CD0D9
S1130C40670F781F891F9A1FA11D680F791F8A1FBC
S1130C50911DA11D6A0F711D811D911DA11D20D023
S1130C6009F468943F912AE0269F11243019305DDD
S1130C703193DEF6CF010895462F4770405D4193CE
S1130C80B3E00FD0C9F7F6CF462F4F70405D4A331B
S1130C9018F0495D31FD4052419302D0A9F7EACFE3
S1130CA0B4E0A6959795879577956795BA95C9F712
S1130CB000976105710508959B01AC010A2E069405
S1130CC05795479537952795BA95C9F7620F731FBE
S1130CD0841F951FA01D08952F923F924F925F92FB
S1130CE06F927F928F929F92AF92BF92CF92DF9238
S1130CF0EF92FF920F931F93CF93DF93CDB7DEB79D
S1130D00CA1BDB0B0FB6F894DEBF0FBECDBF099430
S1130D102A88398848885F846E847D848C849B8487
S1130D20AA84B984C884DF80EE80FD800C811B8195
S1130D30AA81B981CE0FD11D0FB6F894DEBF0FBEC4
S10D0D40CDBFED010895F894FFCF34
S1130D4A3738392F3435362A3132332D43303D2B57
S1130D5A456E746572206E756D626572733A200011
S1090D6A2C2000256400AA
S9030000FC
